:020000040801F1
:10000000E8250020F90201080101010803010108A7
:10001000070101080B0101080F01010800000000A1
:1000200000000000000000000000000013010108B3
:10003000150101080000000017010108EB3C010850
:100040000F0301080F0301080F0301082F6A0108BD
:100050000F0301080F0301080F0301080F03010834
:100060000F0301080F0301080F0301080F03010824
:100070000F0301080F0301080F0301080F03010814
:100080000F0301080F0301080F0301080F03010804
:100090000F0301080F0301080F0301080F030108F4
:1000A0000F0301080F0301080F0301080F030108E4
:1000B0002D3E0108A73E0108233F01080F03010858
:1000C0000F0301080F0301080F0301080F030108C4
:1000D0000F0301085B4501088D41010897420108A3
:1000E0000F0301080F0301080F030108DFF80CD00C
:1000F00007F082FC0048004715030108E8250020AE
:10010000704700BFFEE700BFFEE700BFFEE700BF8D
:10011000FEE77047704770470CB5002001900090D3
:100120006B48006840F480306949086000BF684847
:10013000006800F4003000900198401C0190009885
:1001400018B90198B0F5A06FF1D16148006800F4CA
:10015000003010B10120009001E0002000900098D4
:10016000012843D15B48006840F0100059490860FD
:100170000846006820F0070008600846006840F064
:10018000020008605248406851494860084640688B
:1001900048600846406840F480604860084640680F
:1001A00020F47C1048600846406840F4E81048603D
:1001B0000846006840F08070086000BF444800684E
:1001C00000F000700028F9D04148406820F003009A
:1001D0003F4948600846406840F00200486000BF60
:1001E0003B48406800F00C000828F9D10CBD10B560
:1001F000FFF792FF10BD10B53548006840F00100D0
:10020000334908600846406833490840304948602F
:1002100008460068314908402D49086008460068D2
:1002200020F4802008600846406820F4FE00486002
:100230004FF41F008860FFF7DAFF2948294908605A
:1002400010BD10B5002100200022214B5B6803F097
:100250000C0121B1042906D0082928D107E0224B3E
:10026000224C236027E0204B204C236023E0184BD6
:100270005B6803F47010164B5B6803F48032022352
:1002800003EB904022B91A4B4343184C23600DE016
:100290000F4B5B6803F4003323B1154B4343134CFE
:1002A000236003E0104B4343104C236003E00E4BEC
:1002B0000E4C236000BF00BF054B5B68C3F3031304
:1002C0000C4CE15C094B1B68CB40084C236010BD13
:1002D00000100240002002400000FFF8FFFFF6FE81
:1002E0000000010808ED00E000127A000000002084
:1002F00000093D000400002005480047FEE7FEE736
:10030000FEE7FEE7FEE7FEE7FEE7FEE7FEE7FEE7C5
:10031000ED00010894B0002013900024089009908B
:100320000A90049005900690079003F096F800223A
:100330000521242006F06FF900220521782006F01F
:100340006AF9EEE103F0BDF803F0EBF802F0B4FE59
:1003500013909DF84C0000287ED0F24800780128C8
:100360007AD19DF84C00702834D10B208DF8100004
:1003700008208DF81100EC4800788DF81200EA484A
:1003800041788DF8131000208DF814000D208DF8A1
:10039000150000208DF816008DF8170030218DF81B
:1003A000181013A8CDF81900DDF819003022DF4924
:1003B00007F05EF808A904A806F0A1FCC4B2122058
:1003C00003F09BFF342003F098FF214608A803F0B8
:1003D000A1FF82E00A208DF8100008208DF811009E
:1003E000D14800788DF81200CF4841788DF813106D
:1003F00000208DF8140002208DF8150000208DF8E3
:100400001600CB4800788DF81700C94841788DF860
:10041000181013A8CDF8190008A904A806F06FFC5D
:10042000C4B2122003F069FF342003F066FF2146B6
:1004300008A803F06FFF4FF4FA7003F064FC0B2080
:100440008DF8100008A904A806F059FCC4B21220C7
:1004500003F053FF342000E042E003F04EFF21465A
:1004600008A803F057FF0020B249087048701F2108
:100470004FF6FF72B0A3CDE90021029048229521EA
:10048000242006F087F80020AE49087048701F212C
:100490004FF6FF72A8A3CDE90021029048229521D2
:1004A000782006F077F800201F214FF6FF72A6A3F0
:1004B000CDE90021029048227D21402006F06AF813
:1004C00000201F214FF6FF729FA3CDE9002102906B
:1004D00048227D21942006F05DF8002091490870A3
:1004E0009D480078012805D101220521242006F02D
:1004F00092F804E000220521242006F08CF89748A9
:100500000078012805D101220521782006F083F822
:1005100004E000220521782006F07DF800201F214C
:100520004FF6FF728EA3CDE90021029048220521EB
:100530005C2006F02FF800201F214FF6FF7289A3E0
:10054000CDE90021029048222921082006F022F856
:1005500000201F214FF6FF7284A3CDE900210290F5
:1005600048222921242006F015F800201F214FF6EB
:10057000FF7280A3CDE9002102904822292140206A
:1005800006F008F87D4A7EA10BA807F0E5FA0020E6
:100590001F214FF6FF720BABCDE9002102904822DC
:1005A0007D21082005F0F6FF62484378027875A1A6
:1005B0000BA807F0D1FA00201F214FF6FF720BABFA
:1005C000CDE90021029048229521242005F0E2FF88
:1005D0006E4A6BA10BA807F0BFFA00201F214FF64F
:1005E000FF726A4BCDE90021029048227D21402014
:1005F00005F0D0FF66496748006806F071FF0746BE
:1006000006F0B1FF05462A460B4663A10BA807F08A
:10061000A3FA00201F214FF6FF720BABCDE900219A
:10062000029048224121B02005F0B4FF00201F2194
:100630004FF6FF724BA3CDE90021029048222921F9
:100640005C2005F0A7FF00201F214FF6FF7247A393
:10065000CDE90021029048222921782005F09AFF57
:1006600000201F214FF6FF7242A3CDE90021029026
:1006700048222921942005F08DFF4A4A40A10BA869
:1006800007F06AFA00201F214FF6FF720BABCDE98D
:100690000021029048227D215C2005F07BFF294843
:1006A0004378027837A10BA807F056FA00201F21E3
:1006B0004FF6FF720BABCDE9002102904822952145
:1006C000782005F067FF384A2DA10BA807F044FAFF
:1006D00000201F214FF6FF72334BCDE9002102901D
:1006E00048227D21942005F055FF29492F480068B4
:1006F00006F0F6FE074606F036FF05462A460B468C
:1007000025A10BA807F028FA00201F214FF6FF7241
:100710000BABCDE9002102904822AD21B02005F0BD
:1007200039FF0FE6310000208C0000202A0700204E
:100730008E000020410000202020202020202020AA
:100740000000000046000020202020202020202043
:1007500020202020202020006400002065000020B0
:10076000BAF33A00CFDFC2B7BAC53A00D5BEB5E397
:10077000BAC53A00D5BEB5E3C3FB3A00DC0600209B
:10078000257300002564202564000000E506002094
:100790000000C8424C000020252E3266D4AA20203A
:1007A00020000000030700200C070020500000205C
:1007B00031490143314A1160704770B5002100236F
:1007C0000F22C47804B32D4C246804F4E064C4F50B
:1007D000E064210AC1F10403CA40447804FA03F139
:1007E0008478144021430901254C0678A1550478EA
:1007F00004F01F050124AC4005786D11AD0005F132
:10080000E025C5F8004109E0047804F01F05012443
:10081000AC401C4D0678761145F8264070BD1A4A4A
:100820000A400243154B1B1F1A60704739B1134A27
:10083000121D12680243114B1B1D1A6006E00F4A7D
:10084000121D126882430D4B1B1D1A60704704284D
:1008500008D14FF0E021096941F004014FF0E02296
:10086000116107E04FF0E021096921F004014FF028
:10087000E0221161704700000000FA050CED00E075
:1008800000E400E080E100E080FFFF1F10B50120E0
:1008900000F0A8FF002000F0A5FF10BD2A49086065
:1008A00070472949091F086070472749843108604B
:1008B000704701460020254A10884FF67F421040BD
:1008C0000843224A10807047014600201F4A1088C2
:1008D0004FF68072104008431C4A1080704708B5DC
:1008E00000220092194A2C3A0092009A0244009287
:1008F000009A116008BD08B5014600200090134819
:100900002C3800900098084400900098008808BD9A
:100910000D489C300068C0B270470C480830008811
:1009200040F0010009490831088070470648A030AE
:100930000068C0B2704705480830008840F00200E7
:10094000024908310880704704860D422C6C004033
:10095000002044490860091D0860091D0860091D40
:10096000086041483F4914310860704700213D4903
:100970008279002A3AD00A46126803689A430B46E5
:100980001A600A1D126803689A430B1D1A600279E7
:1009900011440A6803681A430A60324A083212682E
:1009A00003689A432F4B08331A601A1D12680368B4
:1009B0009A432C4B0C331A604279102A0ED11A1F1D
:1009C000126803681A43274B08331A601A1D12680D
:1009D00003681A43234B0C331A600DE02149427916
:1009E00011440A6803681A430A6005E00279114459
:1009F0000A6803689A430A60704700210160017128
:100A00000C2141710021817170471649103109682C
:100A10000143144A10321160704701460020114A08
:100A2000143212680A400AB1012000E00020704729
:100A30000C49143108607047014600200022094B20
:100A40001B6803EA0102074B14331B680B4013B108
:100A50000AB1012000E0002070470249143108600B
:100A60007047000000040140FFFF0F0030B943F25F
:100A7000DB028100A1F1C0410A6005E043F2D2022D
:100A80008100A1F1C0410A606FF07042411C8900F1
:100A9000A1F1C0410A608100A1F1C041C1F8042167
:100AA000704710280AD118214FF0204211664021CA
:100AB00051664FF0FC319166D16610E01821F74A7B
:100AC000116040214FF02042C2F884104FF0FC31F9
:100AD000F24A083211604FF02042C2F88C10704781
:100AE0001820EE492031086000200906C1F8A40052
:100AF0004FF0FC30E94928310860091D0860091DE4
:100B000008607047D0E901121143C26811430269BD
:100B100011434269114382691143C2691143026A58
:100B20001143426A1143826A1143C26A1143026B44
:100B3000114302689200A2F1C04211608168082945
:100B40000BD101688900A1F1C041096841F0400260
:100B500001688900A1F1C0410A60416B0968426BDC
:100B6000526841EA0211426B926841EA0221426BEB
:100B7000928941EA0241426B128A41EA0251426B78
:100B8000127D41EA0261426B926911430268521C74
:100B90009200A2F1C0421160C16AB1F5804F1BD131
:100BA000816B0968826B526841EA0211826B92681C
:100BB00041EA0221826B128A41EA0251826B127D64
:100BC00041EA0261826B9269114302689200A2F1CC
:100BD000C042C2F8041107E06FF07042016889005A
:100BE000A1F1C041C1F80421704730B500210022B5
:100BF0000023446844F0080485682C43C5682C43EE
:100C000005692C43456944EA4524856944EA453130
:100C1000C4692468C5696D6844EA0524C5692D89DD
:100C200044EA0544C5692D7B44EA0562046A2468E8
:100C3000056A6D6844EA0524056A2D8944EA05447D
:100C4000056A2D7B44EA05630468102C05D14FF03A
:100C500020442166A266E36608E0904C21604FF0D4
:100C60002044C4F888208D4C0C34236030BD0168CA
:100C700041F01001426841EA4221826841EA423172
:100C8000864A20321160C1680968C268526841EA28
:100C90000221C268128941EA0241C268127B41EA1C
:100CA00002617E4A2832116001690968026952684E
:100CB00041EA02210269128941EA02410269127B7A
:100CC00041EA0261754A2C32116041690968426942
:100CD000526841EA02214269128941EA02414269AD
:100CE000127B41EA02614FF02042C2F8B010704717
:100CF000002101600221416000218160C160016129
:100D000041618161C16101624FF4805141624900DA
:100D100081620021C16201630F21426B1160426B4D
:100D20005160FF21426B91600F21426BD160426B99
:100D30001161426B51610021426B91610F21826B05
:100D40001160826B5160FF21826B91600F21826B79
:100D5000D160826B1161826B51610021826B916164
:100D6000704710210160002141608160C160016114
:100D700041618161FC21C2691160C2695160C2692F
:100D80009160C269D160026A1160026A5160026AB0
:100D90009160026AD160704700210160416081600A
:100DA000FC21C2681160C2685160C2689160C2686B
:100DB000D160026911600269516002699160026943
:100DC000D160426911604269516042699160426933
:100DD000D160704751B18200A2F1C042126842F066
:100DE00001038200A2F1C042136009E08200A2F177
:100DF000C04212682A4B1A408300A3F1C0431A6014
:100E0000704799B1102808D14FF02042126E42F07D
:100E100004024FF020431A661DE0204A126842F097
:100E200004024FF02043C3F8802014E0102809D1B9
:100E30004FF02042126E1A4BDB1E1A404FF0204337
:100E40001A6608E0154A1268154BDB1E1A404FF06F
:100E50002043C3F88020704748B110492031096809
:100E600041F004014FF02042C2F8A01009E00B4904
:100E7000203109680A4AD21E11404FF02042C2F8C0
:100E8000A0107047B9B110280CD14FF02042126E5B
:100E900042F040024FF020431A661FE0800000A09D
:100EA000FEFF0F00724A126842F040024FF02043EA
:100EB000C3F8802012E0102808D14FF02042126EB3
:100EC0006C4B1A404FF020431A6607E0684A1268DC
:100ED000684B1A404FF02043C3F88020704701460A
:100EE0000020102903D14FF02042506F02E0604AE9
:100EF00014321068704710B5F2B1102807D14FF0C6
:100F000020435B6E0B434FF02044636632E0B0F544
:100F1000807F08D1564B1B1D1B680B434FF02044AC
:100F2000C4F8843026E0524B24331B680B434FF047
:100F30002044C4F8A4301DE0102807D14FF020430E
:100F40005B6E8B434FF02044636613E0B0F5807F07
:100F500008D1474B1B1D1B688B434FF02044C4F83E
:100F6000843007E0424B24331B688B434FF020440E
:100F7000C4F8A43010BD10B5024600200023102A8A
:100F800003D14FF02044636E09E0B2F5807F03D1B6
:100F9000374C241D236802E0354C2434236803EACF
:100FA00001040CB1012000E0002010BD102807D181
:100FB0004FF02042526E8A434FF020435A6613E0AE
:100FC000B0F5807F08D12A4A121D12688A434FF07B
:100FD0002043C3F8842007E0254A243212688A435C
:100FE0004FF02043C3F8A420704770B5024600209C
:100FF000002300240025102A03D14FF02046736EF1
:1010000009E0B2F5807F03D1194E361D336802E046
:10101000174E2436336803EA010403EAD10514B1FC
:101020000DB1012000E0002070BD102808D14FF064
:101030002042526E22EAD1024FF020435A6615E058
:10104000B0F5807F09D10A4A121D126822EAD10246
:101050004FF02043C3F8842008E0054A2432126888
:1010600022EAD1024FF02043C3F8A42070470000C9
:10107000800000A0BFFF0F0010B50446CC4884429A
:1010800008D10121042000F093FB0021042000F08E
:101090008FFB46E0C748844208D10121082000F0B8
:1010A00087FB0021082000F083FB3AE0C24884421D
:1010B00008D10121102000F07BFB0021102000F05E
:1010C00077FB2EE0BD48844208D10121202000F0AA
:1010D0006FFB0021202000F06BFB22E0B848844227
:1010E00008D10121402000F063FB0021402000F0E6
:1010F0005FFB16E0B348844208D10121802000F054
:1011000057FB0021802000F053FB0AE0AE488442E8
:1011100007D10121801500F04BFB0021A01500F044
:1011200047FB10BD10B50121084600F041FB00212E
:10113000012000F03DFB10BD2DE9F04102460025E5
:101140000026002000230024002791F803C00CF0A3
:101150000F0591F803C00CF0100CBCF1000F03D088
:1011600091F802C04CEA050591F800C0BCF1000FEF
:1011700031D0146800202BE04FF0010C0CFA00F382
:10118000B1F800C00CEA03069E4220D183004FF064
:101190000F0C0CFA03F7BC4305FA03FC4CEA0404F9
:1011A00091F803C0BCF1280F06D14FF0010C0CFAE6
:1011B00000FCC2F814C00AE091F803C0BCF1480F6B
:1011C00005D14FF0010C0CFA00FCC2F810C0401C15
:1011D0000828D1D31460B1F800C0BCF1FF0F34DD92
:1011E000546800202EE000F1080C4FF0010808FAC6
:1011F0000CF3B1F800C00CEA03069E4221D1830033
:101200004FF00F0C0CFA03F7BC4305FA03FC4CEA51
:10121000040491F803C0BCF1280F05D100F1080CBB
:1012200008FA0CF8C2F8148091F803C0BCF1480F1A
:1012300007D100F1080C4FF0010808FA0CF8C2F8C9
:101240001080401C0828CED35460BDE8F0814FF6D2
:10125000FF710180022181700421C1707047024634
:10126000002093680B400BB1012000E00020704784
:101270000146886880B2704702460020D3680B4060
:101280000BB1012000E0002070470146C86880B221
:10129000704701617047416170470AB1016100E028
:1012A00041617047C16070474FF480320A438261E8
:1012B0008161826182698269704702460020434BE6
:1012C00018684FF68073184040EA021008433F4BFD
:1012D000186070473E49C8617047F0B50A46002360
:1012E00000240021002500F00046B6F1004F02D195
:1012F000364EF16901E0354E7168C0F3034583B2A3
:1013000000F44016B6F5401F08D121F070612F4E51
:10131000766826F070662D4F7E6012E000F480162D
:10132000B6F5801F06D1032606FA05F4A14341F065
:10133000706106E0460D360103FA06F6B14341F04E
:10134000706122B1460D360103FA06F6314300F012
:101350000046B6F1004F02D11C4EF16101E01B4E78
:101360007160F0BD30B500228B071C0F0F2303FA0C
:1013700004F2164B08338C1053F824309343134C6B
:1013800008348D1044F8253023468C1053F824304F
:101390008C07240F00FA04F423430C4C08348D10FE
:1013A00044F8253030BD0A49DC3108607047000040
:1013B00000080140000C01400010014000140140F1
:1013C00000180140001C01400020014000000140C5
:1013D0000000204210B50121080700F0F6F90021B5
:1013E0004FF0805000F0F1F910BD2A4908627047B3
:1013F00028490861704701460020274A106820F0FC
:10140000E0000843106070472249A031086070472F
:1014100010B502460020204B186820F0030010434E
:1014200018601E4B1B6843F004031C4C2360012909
:1014300001D130BF00E020BF184B1B6823F004032C
:10144000164C236010BD1448006840F00400124997
:1014500008600846006840F0020008600F48006815
:1014600040F004000D49086000BF00BF30BF704766
:1014700001460020084A52680A400AB1012000E0F3
:10148000002070470449096841EA8001024A11605E
:101490007047000000000E420070004010ED00E0B8
:1014A000DF48006840F00100DD49086008464068F8
:1014B000DC490840DA49486008460068DA490840D3
:1014C000D74908600846006820F480200860084674
:1014D000406820F4FE0048604FF41F0088607047A9
:1014E000CF49096821F48031CD4A1160114609685D
:1014F00021F480211160B0F5803F03D0B0F5802F3A
:101500000ED106E0C649096841F48031C44A116031
:1015100007E0C349096841F4A021C14A116000E015
:1015200000BF00BF704710B5014600220023002015
:101530004A11012A02D1BA4C236806E0022A02D1DC
:10154000B74C236A01E0B64C636A01F01F02012424
:1015500094401C400CB1012000E0002010BD38B5C3
:10156000002000900024002500BF3120FFF7DBFFA2
:1015700005460098401C00900098B0F5A06F01D07F
:10158000002DF2D03120FFF7CEFF08B1012400E09A
:101590000024204638BD01460020A14A106820F0F2
:1015A000F80040EAC10010607047A0490860704729
:1015B000024600209A4B586820F47C1042EA01034E
:1015C0001843974B58607047984908667047014622
:1015D0000020934A506820F0030008435060704791
:1015E0008F48406800F00C007047014600208C4A8C
:1015F000506820F0F000084350607047014600201A
:10160000874A506820F4E060084350607047014604
:101610000020834A506820F4605040EAC1005060C6
:10162000704729B17E4A527A02437D4B5A7204E0D8
:101630007B4A527A82437A4B5A7270477B49D8313F
:101640000860704701460020754A506820F4404009
:101650000843506070470021714A20321170704A6F
:1016600082F82010012802D004280AD104E00121C8
:101670006B4A2032117005E00521694A2032117051
:1016800000E000BF00BF70476949086070476449C7
:10169000096A0143624A116270476549443908602A
:1016A000704730B500210022002400235C4D6D6896
:1016B00005F00C0121B1042905D0082923D105E04A
:1016C0005C4D056022E05B4D05601FE0544D6D6888
:1016D00005F47012524D6D6805F48034022505EB57
:1016E00092421CB9544D554305600BE04C4D6D685A
:1016F00005F400351DB1504D5543056002E04D4DD8
:101700005543056002E04B4D056000BF00BF444DEE
:101710006D6805F0F0010909484D6B5C0568DD4016
:1017200045603F4D6D6805F4E061090A434D6B5C0F
:101730004568DD4085603A4D6D6805F46051C90A21
:101740003E4D6B5C4568DD40C560354D6D6805F408
:101750004041890B3A4D6B5CC568B5FBF3F50561FB
:1017600030BD29B12E4A526902432D4B5A6104E023
:101770002B4A526982432A4B5A61704729B1284A41
:1017800092690243264B9A6104E0254A926982439A
:10179000234B9A61704729B1214AD2690243204BF9
:1017A000DA6104E01E4AD26982431D4BDA61704758
:1017B00029B11B4AD2680243194BDA6004E0184A87
:1017C000D2688243164BDA60704729B1144A126915
:1017D0000243134B1A6104E0114A12698243104B11
:1017E0001A61704712494039086070470F49C86450
:1017F00070470B49C87170470948406A40F08070D3
:1018000007494862704701460020054A92680A402D
:101810000AB1012000E0002070470149887270473A
:10182000001002400000FFF8FFFFF6FE00004242F9
:101830008004424200127A0000093D00140000209A
:101840002400002029B1564A12880243544B1A80C2
:1018500004E0534A12888243514B1A807047504823
:10186000001D008840F010004D49091D0880704798
:101870004B48001D00884FF6EF7108404849091D8C
:101880000880704700210022002345481830018855
:10189000001D0388001F0288914204D0001D0088AB
:1018A00040EA0240704743EA0140FBE700B50246C8
:1018B000FFF7D5FF100C3A4918310880091D0A803E
:1018C000FFF7D6FF00BD00B50246FFF7C8FFC2F321
:1018D0000340334908310880091D0A80FFF7C8FF1B
:1018E00000BD00B50246FFF7BAFF100C2C492031AD
:1018F0000880091D0A80FFF7BBFF00BD00202849B2
:10190000103109880907080B254914310988084353
:10191000704700BF2248001D008800F0200000280A
:10192000F8D070471E48001D00884FF6F771084038
:101930001B49091D088000BF1948001D008800F0E0
:1019400008000028F8D0704701460020144A121DF4
:1019500012880A400AB1012000E0002070471049B7
:10196000091D098881430E4A121D118070470146E6
:1019700000200B4A121D12880A40D0B2084A128871
:101980000A4012B108B1012000E00020704704496C
:10199000091D09888143024A121D11807047000009
:1019A0000028004010B50446BE48844208D10121F9
:1019B0008014FFF7FDFE0021A014FFF7F9FE16E0EA
:1019C000B948844208D101210014FFF7FEFE00212E
:1019D0002014FFF7FAFE0AE0B448844207D101213F
:1019E000C013FFF7F2FE0021E013FFF7EEFE10BD7B
:1019F00010B50022028802F441520B884C88234320
:101A00008C882343CC8823430C8923434C8923436C
:101A10008C892343CC8923431A430280838B4FF262
:101A2000FF74234083830B8A038210BD2DE9F04F9E
:101A300085B005460C464FF0000902274FF000081C
:101A40004FF0010B0026B246A88B4FF24001084030
:101A5000A88302202884B5F81C90A068022801D130
:101A600000BF38E0A08810B94FF0010B01E04FF043
:101A7000020B8D48854200D100E000BF6846FFF7A9
:101A800010FEDDF800A0E088B0F5007F0AD14FEA33
:101A90001A2000EB80004000A168B0FBF1F0401D6F
:101AA00086B20BE04FEA4B10BAFBF0F000EB80007F
:101AB0004000A168B0FBF1F0401D86B20A20B6FBE1
:101AC000F0F606F00108A6EB0800C0F34F074FF64A
:101AD000FF7000EA0828022F01DBFF2F02DD02273A
:101AE0004FF00008E08840EA080038432884A088C6
:101AF000A1890843618808432188084340F40060B5
:101B000040EA0909A5F81C9005B0BDE8F08F002156
:101B1000018041808180C180018141818181C181B9
:101B20000721018270470021018041808180C180AE
:101B30000221816000218181704721B1028842F039
:101B40004002028004E002884FF6BF731A40028010
:101B5000704721B1828B42F48062828304E0828BE1
:101B60004FF6FF331A408283704730B500240023BC
:101B70000C110125A540ABB21AB185881D438580A3
:101B800002E085889D43858030BD1AB183880B4370
:101B9000838002E083888B43838070478181704714
:101BA0000146888970474FF6FF62914204D002884F
:101BB00042F48072028004E002884FF6FF631A400C
:101BC0000280704721B1828842F00402828004E0E2
:101BD00082884FF6FB731A408280704702884FF26A
:101BE000FF731A40028002880A430280704701880E
:101BF00041F480510180704721B1028842F40052C3
:101C0000028004E002884DF6FF731A40028070479C
:101C100002460020012901D0108B00E0908A704715
:101C20000146088A7047B1F5804F04D1028842F41A
:101C30008042028004E002884BF6FF731A40028063
:101C400070470246002013890B400BB1012000E0D1
:101C500000207047CA4302817047F0B50246002059
:101C600000240023002501F00F070126BE40B4B276
:101C70000B1101269E40B3B2968806EA0305168929
:101C8000264016B10DB1012000E00020F0BD10B5D6
:101C9000002201F00F040123A3409AB2D343038131
:101CA00010BD00000030014000380040003C004002
:101CB00010B50446FE48844208D10121C014FFF744
:101CC00077FD0021E014FFF773FDC4E0B4F1804F0D
:101CD00008D101210846FFF778FD00210120FFF718
:101CE00074FDB8E0F348844208D101210220FFF7D7
:101CF0006CFD00210220FFF768FDACE0EE48844255
:101D000008D101210420FFF760FD00210420FFF726
:101D10005CFDA0E0E948844208D101210820FFF7DA
:101D200054FD00210820FFF750FD94E0E448844270
:101D300008D101211020FFF748FD00211020FFF7F6
:101D400044FD88E0DF48844208D101212020FFF7CC
:101D50003CFD00212020FFF738FD7CE0DA4884427A
:101D600008D101214014FFF723FD00216014FFF783
:101D70001FFD70E0D548844209D10121C804FFF756
:101D800017FD00214FF40020FFF712FD63E0D0485B
:101D9000844209D101210805FFF70AFD00214FF413
:101DA0008010FFF705FD56E0CA48844209D10121A1
:101DB0004805FFF7FDFC00214FF40010FFF7F8FC89
:101DC00049E0C548844208D101214020FFF7FDFCCD
:101DD00000214020FFF7F9FC3DE0C048844208D1D3
:101DE00001218020FFF7F1FC00218020FFF7EDFCAE
:101DF00031E0BB48844208D101218015FFF7E5FCA2
:101E00000021A015FFF7E1FC25E0B648844209D186
:101E100001210804FFF7CCFC00214FF48030FFF7CC
:101E2000C7FC18E0B048844209D101214804FFF7FB
:101E3000BFFC00214FF40030FFF7BAFC0BE0AB48C9
:101E4000844208D101218804FFF7B2FC00214FF43D
:101E50008020FFF7ADFC10BD00220288944B984211
:101E60000ED0994B98420BD0B0F1804F08D0914BD7
:101E7000984205D0904B984202D0904B984204D1A2
:101E80004FF68F731A404B881A438D4B984207D0F8
:101E90008C4B984204D04FF6FF431A40CB881A432C
:101EA00002808B8883850B880385814B98420BD0F9
:101EB000854B984208D08B4B984205D08A4B98426C
:101EC00002D08A4B984201D10B7A03860123838288
:101ED000704770B5002400220023058C4FF6FE7673
:101EE00035400584028C8388048B4FF68F752C4017
:101EF000B51E2C400D882C43751E2A400D892A439F
:101F00004D882A436A4DA8420BD06F4DA84208D095
:101F1000744DA84205D0744DA84202D0734DA8421A
:101F200013D14FF6F7752A404D892A434FF6FB75BA
:101F30002A408D882A434FF6FF652B404FF6FF5508
:101F40002B408D892B43CD892B4383800483CD88FF
:101F50008586028470BD70B5002400220023058CA4
:101F60004FF6EF7635400584028C8388048B48F663
:101F7000FF752C404FF6FF452C400D884FF6FF763D
:101F800006EA05252C434FF6DF752A400D8906EA3F
:101F900005152A434D8806EA05152A43444DA842F3
:101FA00002D0494DA8421DD14FF67F752A404D8978
:101FB0004FF6FF7606EA05152A434FF6BF752A400D
:101FC0008D8806EA05152A434FF6FF352B404FF260
:101FD000FF752B408D8906EA85052B43CD8906EADE
:101FE00085052B4383800483CD880587028470BDDB
:101FF00070B5002400220023058C4FF6FF663540A3
:102000000584028C8388848B4FF68F752C404FF6A5
:10201000FC752C400D882C434FF6FF552A400D8946
:102020004FF6FF7606EA05252A434D8806EA052580
:102030002A431F4DA84202D0234DA8421DD14FF282
:10204000FF752A404D894FF6FF7606EA05252A439B
:102050004FF6FF352A408D8806EA05252A434EF6BD
:10206000FF752B404DF6FF752B408D8906EA05154F
:102070002B43CD8906EA05152B4383808483CD88C5
:102080008587028470BD70B5002200230024058C72
:102090004EF6FF7635400584038C8488828B48F6A3
:1020A000FF752A404FF6FF452A400D8820E00000CA
:1020B000002C01400004004000080040000C0040DB
:1020C000001000400014004000340140004C01406A
:1020D000005001400054014000180040001C004026
:1020E0000020004000400140004401400048014001
:1020F0004FF6FF7606EA05252A434DF6FF752B407D
:102100000D8906EA05352B434D8806EA05352B4334
:10211000FA4DA84202D0FA4DA84208D14BF6FF75FD
:102120002C408D894FF6FF7606EA85152C43848076
:102130008283CD88A0F84050038470BD828B4FF21B
:10214000FF331A408283828B4FF6FF7303EA012329
:102150001A4382837047F0B50C46154600220021D1
:102160000026078C4EF6FF7C07EA0C070784828B5B
:10217000018C4FF6FF7707EA043640F6FF473A40F6
:102180004FF6FF7707EA05273A434FF6FF7707EA4E
:1021900003373A43D94FB8420ED0D94FB8420BD08B
:1021A000B0F1804F08D0D74FB84205D0D64FB842D3
:1021B00002D0D64FB84206D14DF6FF77394046F4EB
:1021C0008057394305E047F6FF57394044F48057BC
:1021D000394382830184F0BD828B4FF6F3731A403A
:1021E0008283828B0A4382837047F0B50C46154682
:1021F000002200210026078C4FF6FF6C07EA0C072F
:102200000784828B018C4FF6FF7707EA04264FF68E
:102210000C773A404FF6FF7707EA03172F433A430C
:10222000B64FB8420ED0B64FB8420BD0B0F1804F87
:1022300008D0B44FB84205D0B34FB84202D0B34F24
:10224000B84206D14FF6FF57394046F480773943FC
:1022500005E04FF2FF57394044F4807739438283D9
:102260000184F0BD028B4FF2FF331A400283028BD0
:102270004FF6FF7303EA01231A4302837047F0B558
:102280000C461546002200210026078C4FF6EF7CF5
:1022900007EA0C070784028B018C4FF6FF7707EAE9
:1022A000041640F6FF473A404FF6FF7707EA033738
:1022B0003A434FF6FF7707EA05273A438F4FB84274
:1022C0000ED08F4FB8420BD0B0F1804F08D08D4F59
:1022D000B84205D08C4FB84202D08C4FB84206D1DC
:1022E0004FF6DF77394046F01007394305E04FF6E7
:1022F0005F77394044F01007394302830184F0BD11
:10230000028B4FF6F3731A400283028B0A43028357
:102310007047F0B50C46154600220021068C4FF69A
:10232000FE773E400684028B018C4FF60C763240DD
:102330007E1C06EA03162E433243704EB0420ED086
:102340006F4EB0420BD0B0F1804F08D06D4EB0420E
:1023500005D06D4EB04202D06C4EB04206D14FF661
:10236000FD76314044F00106314305E04FF6F57645
:10237000314044F00106314302830184F0BD70B561
:1023800005460C465D4885420ED05D4885420BD01F
:10239000B5F1804F08D05B48854205D05A48854248
:1023A00002D05A48854200D100E000BF208850B9D1
:1023B0002389A28861882846FFF7ABFFE188284679
:1023C000FFF79EFF25E0208804280AD12389A288F0
:1023D00061882846FFF753FFE1882846FFF742FF50
:1023E00017E0208808280AD12389A2886188284616
:1023F000FFF7FBFEE1882846FFF7EEFE09E02389A0
:10240000A28861882846FFF7A6FEE1882846FFF7E4
:1024100095FE70BD2DE9F04105460C4600260127CA
:10242000608808B9022600E00026A088012801D1B2
:10243000022700E001272088A0B92389A2886188AB
:102440002846FFF766FFE1882846FFF759FF2389F2
:102450003A4631462846FFF712FFE1882846FFF743
:1024600001FF13E02389A28861882846FFF707FF50
:10247000E1882846FFF7F6FE23893A46314628468A
:10248000FFF747FFE1882846FFF73AFFBDE8F081F4
:102490000A884B881A438B881A43CB881A430B89C6
:1024A0001A434B891A438B891A43A0F8442070477A
:1024B0004FF6FF71818000210180C180418001724F
:1024C00070470021018041808180C180018141816C
:1024D0008181C1817047002101804180012181807B
:1024E0000021C180018170470021018041808180ED
:1024F000C18001814181818170470000002C014031
:10250000003401400004004000080040000C00407E
:1025100021B1028842F00102028004E002884FF6F5
:10252000FE731A400280704731B1B0F8442042F483
:102530000042A0F8442005E0B0F84420C2F30E02A7
:10254000A0F8442070471AB183890B43838102E0CD
:1025500083898B43838170478182704741EA0203FC
:10256000A0F8483070471AB183890B43838102E099
:1025700083898B438381704701894FF6F87211403C
:10258000018170470A46002101894FF68F73194077
:1025900011430181704730B504460D462946204657
:1025A000FFF7F0FF208940F00700208130BD2DE9C2
:1025B000F04104460D4616461F46602D06D13B46A7
:1025C000012231462046FFF75AFE05E03B46012234
:1025D00031462046FFF79DFE29462046FFF7D2FFF1
:1025E000208940F007002081BDE8F08130B50C461D
:1025F00000210189C9B24FF6FF7505EA032515438D
:1026000025432943018130BD2DE9F04105460E46A1
:1026100017469846002443463A4631462846FFF777
:10262000E5FF2C894FF6F870044044F007044FF69C
:102630008F70044044F070042C81BDE8F081F0B547
:1026400004460D4616461F463B463246294620465E
:10265000FFF7CCFF208940F480402081F0BD018548
:10266000828270470A46002101884FF68F73194015
:10267000114301807047F0B50C4615461E460021F7
:10268000002200230189028B038C4FF6F877394032
:1026900021434FF6FC473A4040F201173A434FF6C8
:1026A000DD773B404FF6FF7707EA06172F433B43A2
:1026B000018102830384F0BD0A460021018B4FF69D
:1026C0008F7319401143018370470A460021018B23
:1026D00048F6FF7319404FF6FF7303EA02231943CC
:1026E000018370470A460021818B4FF68F73194092
:1026F0001143818370470A460021818B48F6FF739E
:1027000019404FF6FF7303EA022319438183704790
:1027100021B1028842F08002028004E002884FF674
:102720007F731A400280704721B1828842F0040210
:10273000828004E082884FF6FB731A4082807047E3
:1027400021B1828842F00802828004E082884FF63C
:10275000F7731A408280704721B1828842F00102EB
:10276000828004E082884FF6FE731A4082807047B0
:102770000A460021018B4FF6F7731940114301837C
:1027800070470A460021018B4FF2FF7319404FF644
:10279000FF7303EA02231943018370470A460021AD
:1027A000818B4FF6F77319401143818370470A46B6
:1027B0000021818B4FF2FF7319404FF6FF7303EA3C
:1027C00002231943818370470A460021018B4FF68B
:1027D000FB7319401143018370470A460021018BA6
:1027E0004FF6FF3319404FF6FF7303EA02231943F4
:1027F000018370470A460021818B4FF6FB73194015
:102800001143818370470A460021818B4FF6FF33C5
:1028100019404FF6FF7303EA02231943818370477F
:102820000A460021018B4FF67F7319401143018343
:1028300070470A460021018BC1F30E014FF6FF736A
:1028400003EA02231943018370470A460021818B62
:102850004FF67F7319401143818370470A46002168
:10286000818BC1F30E014FF6FF7303EA0223194374
:10287000818370470A460021018C4FF6FD73194091
:102880001143018470470A460021018C4FF6F7730B
:1028900019401143018470470A460021018C4FF60C
:1028A000DF7319404FF6FF7303EA021319430184E3
:1028B00070470A460021018C4FF67F7319404FF68E
:1028C000FF7303EA02131943018470470A4600218B
:1028D000018C4FF6FF5319404FF6FF7303EA0223B2
:1028E0001943018470470A460021018C4FF2FF739F
:1028F00019404FF6FF7303EA02231943018470471E
:102900000A460021018C4DF6FF7319404FF6FF7304
:1029100003EA023319430184704730B500230124D0
:102920008C40A3B2048C9C430484048C02FA01F50D
:10293000ADB22C43048430BD30B5002304248C4058
:10294000A3B2048C9C430484048C02FA01F5ADB25A
:102950002C43048430BD70B5034600200024184683
:10296000183001258D40ACB21D8CA5431D8409B1E2
:10297000082909D100EB6100056825F070050560A4
:102980000568154305600EE00D1FC5F34E0528448C
:10299000056825F4E045056005684FF6FF7606EA10
:1029A00002263543056070BD21B1028842F0020263
:1029B000028004E002884FF6FD731A4002807047DF
:1029C00021B1028842F00402028004E002884FF63E
:1029D000FB731A400280704721B1828842F0800266
:1029E000828004E082884FF67F731A4082807047AD
:1029F00002884FF6F7731A40028002880A43028069
:102A0000704782884FF68F731A40828082880A430B
:102A10008280704702894FF6F8731A40028102895A
:102A20000A430281704702894FF67F731A40028180
:102A300002890A430281704781847047818570470B
:102A4000818670470187704781877047A0F84010E2
:102A5000704702884FF6FF431A40028002880A43FB
:102A6000028070470146888E70470146088F704784
:102A70000146888F70470146B1F840007047014613
:102A8000888C70470146088D704702460020138AE3
:102A90000B400BB1012000E000207047CA430282C6
:102AA000704730B50246002000230024158A05EA4D
:102AB0000103958905EA010413B10CB1012000E07E
:102AC000002030BDCA4302827047000010B50446A2
:102AD000FB48844209D101218803FEF769FE0021E9
:102AE0004FF48040FEF764FE32E0F648844209D19C
:102AF00001214804FEF769FE00214FF40030FEF783
:102B000064FE25E0F048844209D101218804FEF7E3
:102B10005CFE00214FF48020FEF757FE18E0EB48E2
:102B2000844209D10121C804FEF74FFE00214FF471
:102B30000020FEF74AFE0BE0E548844208D101215F
:102B40000805FEF742FE00214FF48010FEF73DFE1F
:102B500010BD2DE9F04786B005460E460024A2467A
:102B600000BFA1460027B08900B100BF2F462C8AC4
:102B70004CF6FF700440F08804432C82AC894EF67A
:102B8000F3100440B0883189084371890843044335
:102B9000AC81AC8A4FF6FF400440B0890443AC825C
:102BA00001A8FEF77EFDC648874202D1DDF810A0DD
:102BB00001E0DDF80CA0A88900F4004040B10AEB68
:102BC000CA0000EB0A1031684900B0FBF1F807E0D9
:102BD0000AEBCA0000EB0A1031688900B0FBF1F87B
:102BE0006420B8FBF0F004012009642101FB108986
:102BF000A88900F4004040B1322000EBC900B0FBCE
:102C0000F1F000F00700044308E0322000EB091067
:102C10006421B0FBF1F000F00F0004432C8106B0FA
:102C2000BDE8F0874FF41651016000218180C1801A
:102C300001810C21418100218181704710B502463C
:102C40000020108A4FF2FF0318400B884C88234362
:102C50008C882343CC8823431843108210BD002165
:102C6000018041808180C180704721B1828942F416
:102C70000052828104E082894DF6FF731A408281FE
:102C80007047F0B50346002400260025002040F6DA
:102C90006A17B94200D100BF1846C1F3421401F0CF
:102CA0001F06012707FA06F5012C01D10C3004E0BC
:102CB000022C01D1103000E014301AB107682F4304
:102CC000076002E00768AF430760F0BD1AB1838A6E
:102CD0000B43838202E0838A8B4383827047028A9C
:102CE0004FF6F0731A400282028A0A43028270474A
:102CF00082894FF2FF731A40828182890A4382815E
:102D0000704721B1828942F00202828104E0828907
:102D10004FF6FD731A4082817047028A4FF6DF73C7
:102D20001A400282028A0A430282704721B1028A53
:102D300042F48042028204E0028A4BF6FF731A409A
:102D400002827047C1F3080282807047014688887A
:102D5000C0F308007047818941F00101818170470B
:102D6000028BD2B20283028B42EA012202837047B5
:102D7000028B02F47F420283028B0A430283704774
:102D800021B1828A42F02002828204E0828A4FF6D8
:102D9000DF731A408282704721B1828A42F01002AA
:102DA000828204E0828A4FF6EF731A408282704773
:102DB00021B1828A42F00802828204E0828A4FF6C0
:102DC000F7731A408282704721B1828942F400422F
:102DD000828103E08289C2F30E028281704721B1B1
:102DE000828A42F40062828204E0828A4FF2FF7398
:102DF0001A4082827047828A4FF6FB731A408282A1
:102E0000828A0A438282704721B1828A42F002029A
:102E1000828204E0828A4FF6FD731A4082827047F4
:102E200002460020B1F5007F00D100BF13880B409F
:102E30000BB1012000E00020704701F40072B2F5F0
:102E4000007F00D100BFCA430280704770B50246C0
:102E5000002400230025002040F66A16B14200D16C
:102E600000BFC1F3421501F01F03012606FA03F368
:102E7000012D02D19689334006E0022D02D1168A37
:102E8000334001E0968A33400C12012606FA04F41E
:102E90001688344013B10CB1012000E0002070BD51
:102EA00010B50022002340F66A14A14200D100BFF1
:102EB0000A1201249440A3B2DC43048010BD000038
:102EC000003801400044004000480040004C0040F1
:102ED0000050004008B501210820FEF74FFC0121F9
:102EE0004020FEF74BFC4FF44070ADF8000003208B
:102EF0008DF8020048208DF803006946FE48FEF771
:102F00001BF90320ADF800008DF8020048208DF871
:102F100003006946F948FEF70FF97C20ADF8000080
:102F200003208DF8020010208DF803006946F34855
:102F3000FEF702F908BD10B50421F048FEF7ABF921
:102F40007821EE48FEF7A5F90121EC48FEF787F954
:102F500008B9702010BD0221E848FEF780F908B9D1
:102F60007120F7E74FF40071E348FEF778F908B9EC
:102F70007220EFE74FF48071DF48FEF770F908B96F
:102F80007320E7E70821DD48FEF785F97421DB4867
:102F9000FEF77FF90121D948FEF761F908B9312020
:102FA000D8E70221D548FEF75AF908B93220D1E70F
:102FB0004FF40071D048FEF752F908B93320C9E741
:102FC0004FF48071CC48FEF74AF908B92620C1E7D2
:102FD0001021CA48FEF75FF96C21C848FEF759F97D
:102FE0000121C648FEF73BF908B93420B2E70221B7
:102FF000C248FEF734F908B93520ABE74FF4007149
:10300000BD48FEF72CF908B93620A3E74FF48071CC
:10301000B948FEF724F908B928209BE72021B748D2
:10302000FEF739F95C21B548FEF733F90121B348C1
:10303000FEF715F908B937208CE70221AF48FEF7F3
:103040000EF908B9382085E74FF40071AA48FEF759
:1030500006F908B939207DE74FF48071A648FEF7DC
:10306000FEF808B96C2075E74021A448FEF713F973
:103070003C21A248FEF70DF90121A048FEF7EFF828
:1030800008B9302066E702219C48FEF7E8F808B945
:103090006E205FE74FF400719748FEF7E0F808B93B
:1030A0006A2057E74FF480719348FEF7D8F808B9C3
:1030B0006C204FE700204DE73EB5FFF73CFF04468C
:1030C000002C75D00A2000F01EFEFFF734FF0446E6
:1030D000002CF6D08A480078A042F2D02046372C47
:1030E00067D00EDCA0F12600112822D2DFE800F024
:1030F00024FB28FBFBFBFBFBFBFBB4394653626F55
:103100007C006E2820D008DC38287AD0392879D085
:103110006A2878D06C280CD1D0E0702806D07128AD
:1031200008D0722807D07328F5D1ADE00120754989
:103130000870D8E0D7E0D6E0012072490870D2E0EC
:10314000012070490870CEE030216F480278007885
:10315000401C6D4B18706D488154012069490870FE
:10316000C1E03122684801780078401C664B187035
:1031700066484254012063490870B4E03221624835
:1031800002780078401C604B187060488154012020
:103190005C490870A7E033225B4801780078401C46
:1031A000594B1870594842540120564908709AE00A
:1031B000E3E029E03422544801780078401C524B67
:1031C00018705248425401204E4908708BE0352255
:1031D0004D4801780078401C4B4B18704B484254C6
:1031E0000120484908707EE036214748027800787F
:1031F000401C454B187045488154012041490870D6
:1032000071E00EE01AE026E037213F4802780078AE
:10321000401C3D4B18703D488154012039490870CD
:1032200061E03822384801780078401C364B18702D
:103230003648425401203349087054E0392232485C
:1032400001780078401C304B1870304842540120FF
:103250002C49087047E046E02B48007898B12C488C
:10326000007880B92A480078401C294908702E212E
:10327000254802780078401C234B1870234881545D
:103280000120204908702EE01F480078002814DD36
:103290001D480078401E1C4908701C480978405C95
:1032A0002E2802D100201A49087000201749164A1A
:1032B0001278885401201349087014E012480078ED
:1032C00080B100201049087000BF03E000210F4AC0
:1032D0001154401C0A28F9DB00200D490870012018
:1032E0000849087000BF00BF07480078092802DBC2
:1032F0000920054908700DE0000C0140001801404C
:103300002C000020310000202D000020B6000020FD
:103310002E00002000211A48FFF78EFB01211848DB
:10332000FFF7F6F8174804704FF400411648FDF710
:10333000B0FF642000F0E7FC4FF400411248FDF7B5
:10334000AAFF00201F214FF6FF7210A3CDE9002134
:10335000029048227D21CC2003F01CF900201F217F
:103360004FF6FF720D4BCDE90021029048227D21DE
:10337000CC2003F00FF920463EBD0020FCE7000002
:10338000000400402C0000200008014020202020E4
:10339000202020202020202020200000B600002017
:1033A00008B501210846FEF7E9F901212248FDF799
:1033B00094FF01212148FDF790FF01210420FEF731
:1033C000DDF94FF40040ADF8000003208DF8020055
:1033D00010208DF8030069461948FDF7ADFE4FF443
:1033E00000411748FDF757FF08BD0EB501210846FB
:1033F000FEF7C4F900210846FDF7B4FF0120019053
:1034000000208DF8080008208DF8090001208DF8B3
:103410000A0001A8FDF7AAFA06208DF80000022094
:103420008DF8010003208DF8020001208DF80300C3
:103430006846FDF7C2F90EBD0004300000023000FE
:103440000008014010B54FF4A060FDF7B1F94FF44A
:103450008031C802FDF7E3F910BD10B500F016FC8D
:103460004FF47A7000F04FFC02F012FEFFF7EAFF13
:10347000FFF796FF03F07BFAFFF72CFD4FF4E130E6
:1034800000F076FD4FF4E13000F0B2FE03F04BFEA9
:1034900041F61F4144F61F6000F09AFC41F61F41BF
:1034A00040F6B73000F0D2FC41F61F4142F20F70F7
:1034B00000F00BFD1F2002F001FE322000F023FC83
:1034C00010BD70B5002400F03AFF002828D0FE4857
:1034D00003F095FCFD490880FB4D08460088002854
:1034E0001DDD08460188FAA000F0C8FFF7480288F1
:1034F0002946FD4803F061FB04462146FBA000F08D
:10350000BDFF24B9F849FE4803F096FC044634B9DF
:10351000FCA000F0B3FFFA48006803F0C5FC00BF50
:1035200070BD7FB500200090019002900390F44898
:10353000006800287ED0F248006800788DF800000E
:10354000EF48006840788DF80100ED480068807809
:103550008DF80200EA480068C1788DF80310E84849
:10356000006800798DF80400E548006840798DF81E
:103570000500E348006880798DF80600E04800689F
:10358000C0798DF80700DE480068017A8DF80810D0
:10359000DB480068C068CDF80900D9480068007CA5
:1035A0008DF80D000E21DA4803F07BFF9DF8010035
:1035B000D74908709DF8000048709DF805004871D3
:1035C0009DF8060088710020C8710021D048017262
:1035D000FF20CF4908719DF80510CEA000F04EFFE6
:1035E0001E21CF4803F05DFF9DF801000A287DD120
:1035F0009DF80500022804D0052861D00B2876D15B
:1036000096E00024DDF809202146641C505CC54981
:103610000870DDF809000119C2480278C24803F0B9
:1036200027FF0934DDF809000119C0480988018025
:10363000A41C00E008E3DDF809202146641C505C6E
:10364000BB490870DDF809202146641C505CB9496B
:103650000870DDF809000119B6480278B04803F097
:1036600007FFB04B0122BC21B3A000F008FFAE4B16
:10367000AC480278BD21B5A000F001FFAB4B02229F
:10368000BE21B4A000F0FBFEA94B0122BF21B3A0D4
:1036900000F0F5FEA74B0122C021B2A000F0EFFE22
:1036A0009F4BA4480278C121B3A000F0E8FE9E49D8
:1036B000B3A000F0E3FE9A49B4A000F0DFFEDCE026
:1036C0009DF80600012832D1DDF8090000780006D7
:1036D000B1490860DDF8090040780004AF4908608E
:1036E000DDF8090080780002AD4901E0CAE0C3E0DE
:1036F0000860DDF80900C078AA490860A649096891
:10370000A64A12681144A64A12681144A54A1268D2
:10371000881803F023FFA44908600846006803F0F6
:1037200022FF044622460B46A0A000F0A7FEA4E01C
:103730000024DDF8091030229F4803F099FE9E4BCB
:103740003022D8219DA000F09AFEDDF80920214604
:10375000641C505C73490870DDF809000119714858
:103760000278714803F084FE0934DDF8090001197C
:103770006E4809880180A41CDDF809202146641CDC
:10378000505C6B490870DDF809202146641C505CD0
:1037900068490870DDF80900011966480278604838
:1037A00003F066FE2C24DDF809202146641C505CE1
:1037B000000679490860DDF809202146641C505C48
:1037C000000476490860DDF809202146601CC4B277
:1037D000505C000272490860DDF80900005D714923
:1037E00008606D4909686D4A126811446C4A126894
:1037F00011446C4A1268881803F0B0FE6A490860E8
:10380000012071490870474B0122EB214AA000F0CA
:1038100036FE454B43480278EC214CA000F02FFEC9
:10382000424B0222ED214BA000F029FE404B012229
:10383000EE214AA000F023FE3E4B0122EF2149A0D9
:1038400000F01DFE364B3B480278F0214AA000F004
:1038500016FE35494AA000F011FE31494BA000F098
:103860000DFE5148006803F07EFE05462A460B46D1
:103870004EA000F003FE00E000BF00BF204803F0B0
:1038800062FBE1E19DF801000B28FAD19DF80500EB
:10389000022804D0052814D00B2813D129E10024D4
:1038A000DDF809202146641C505C48490870DDF8A9
:1038B0000900011945480278454803F0D9FD09344B
:1038C00088E0E1E0BBE10000C002002038000020F9
:1038D000675F7265636976655F6C656E67746820A3
:1038E0003D2025640D0A0000C0060020706172733F
:1038F00065526573756C74203D2025640D0A0000C7
:103900003C00002053756363657373210A00000057
:10391000CE0600204465766963653A25780A000082
:10392000E506002040000020DC06002041000020C9
:103930004300002044000020CFDFC2B7BAC5CAB59B
:10394000BCCAB3A4B6C8284845582900CFDFC2B7BF
:10395000BAC50000D5BEBAC500000000B7BDCFF2A1
:1039600000000000D5BEC3FBCAB5BCCAB3A4B6C82C
:103970002848455829000000D5BEC3FB00000000C0
:10398000CFDFC2B7BAC53A25730A0000D5BEC3FB64
:103990003A25730A0000000054000020580000205F
:1039A0005C000020600000204C00002073756D3A20
:1039B000252E3166000000002A07002044415441B2
:1039C00028484558290000006400002045000020D8
:1039D00003070020DDF8090001199C4809880180CF
:1039E000A41CDDF809202146641C505C984908702D
:1039F000DDF809202146641C505C96490870DDF80A
:103A00000900011993480278934803F031FD934B64
:103A1000012240F20B11AFF2E00000F030FD904BBC
:103A20008E4802784FF48671AFF2E00000F027FD77
:103A3000864B022240F20D11AFF2E80000F01FFDAC
:103A4000834B01224FF48771AFF2F00000F017FDB5
:103A5000804B012240F20F11AFF2F80000F00FFD91
:103A60007D4B7C4802784FF48871AFF2F40000F08F
:103A700006FD7B49AFF2F80000F000FD7649AFF299
:103A8000F40000F0FBFCDBE09DF8060001282FD1DC
:103A9000DDF809000078000672490860DDF80900C9
:103AA0004078000470490860DDF809008078000261
:103AB0006E490860DDF80900C0786D490860694901
:103AC0000968694A12681144684A12681144684AD0
:103AD0001268881803F042FD6649086008460068CD
:103AE00003F041FD044622460B4663A000F0C6FCED
:103AF000A6E00024DDF809202146641C505C5749EB
:103B00000870DDF80900011954480278544803F0A0
:103B1000AFFC0934DDF8090001194C48098801801F
:103B2000A41CDDF809202146641C505C484908703B
:103B3000DDF809202146641C505C46490870DDF818
:103B40000900011943480278434803F091FC2C24F2
:103B5000DDF809202146641C505C000641490860DC
:103B6000DDF809202146641C505C00043E490860D1
:103B7000DDF809202046611CCCB2105C00023B49F4
:103B80000860DDF80900005D3949086035490968B9
:103B9000354A12681144354A12681144344A126891
:103BA000881803F0DBFC33490860012035490870B0
:103BB0002A4B012240F23711AFF2842000F05FFC63
:103BC000274B264802784FF49C71AFF2802000F01A
:103BD00056FC1E4B022240F23911AFF2882000F051
:103BE0004EFC1B4B01224FF49D71AFF2902000F070
:103BF00046FC184B012240F23B11AFF2982000F036
:103C00003EFC154B134802784FF49E71AFF298209A
:103C100000F035FC1249AFF2982000F02FFC0E495D
:103C2000AFF2982000F02AFC1248006803F09BFCD9
:103C300005462A460B4610A000F020FC00E000BF1D
:103C400000BF114803F07FF97FBD0000460000204F
:103C500048000020490000200C07002045000020FB
:103C60000307002054000020580000205C000020C2
:103C7000600000205000002073756D323A252E310F
:103C800066000000650000203C00002070B5FCF7D5
:103C9000B2FA4A4800684FF47A72B0FBF2F1B1F11F
:103CA000807F00D31DE021F07F40401E4FF0E022D6
:103CB000506150170F22002807DA13071D0E404BE2
:103CC00000F00F04241F1D5503E013071C0E3D4B8D
:103CD0001C5400BF00204FF0E022906107201061CB
:103CE00000BF00203849088070BD3748008820B1E7
:103CF00035480088401E3449088034480088401CFC
:103D0000324908807047304A108000BF2E49098828
:103D10000029FBD170472D4800887047002100BF63
:103D200048E000BF00BF00BF00BF00BF00BF00BF32
:103D300000BF00BF00BF00BF00BF00BF00BF00BF8B
:103D400000BF00BF00BF00BF00BF00BF00BF00BF7B
:103D500000BF00BF00BF00BF00BF00BF00BF00BF6B
:103D600000BF00BF00BF00BF00BF00BF00BF00BF5B
:103D700000BF00BF00BF00BF00BF00BF00BF00BF4B
:103D800000BF00BF00BF00BF00BF00BF00BF00BF3B
:103D900000BF00BF00BF00BF00BF00BF00BF00BF2B
:103DA00000BF00BF00BF00BF00BF00BF00BF00BF1B
:103DB00000BF491C8142B4D37047000000000020BE
:103DC00018ED00E000E400E066000020680000203C
:103DD0007FB505460C4601210846FDF7DCFCADF831
:103DE0000850ADF804400020ADF80A00ADF8060018
:103DF00001A94FF08040FEF72FF8012211469007ED
:103E0000FEF7A1FB1C208DF8000000208DF80100BA
:103E100003208DF8020001208DF803006846FCF7AE
:103E2000CCFC01218807FEF773FB7FBD10B5012193
:103E30008807FEF736FE40B101218807FEF742FEF3
:103E40000020444908704449087010BD7FB50546FC
:103E50000C4601210220FDF79EFCADF80850ADF89C
:103E600004400020ADF80A00ADF8060001A93B4867
:103E7000FDF7F2FF012211463848FEF764FB1D20D2
:103E80008DF8000000208DF8010002208DF802005E
:103E900001208DF803006846FCF78FFC01212F48B4
:103EA000FEF736FB7FBD10B501212C48FEF7F9FD6A
:103EB00050B101212948FEF705FE0020284908706D
:103EC00000212648FEF724FB10BD7FB505460C46B1
:103ED00001210420FDF75FFCADF80850ADF8044067
:103EE0000020ADF80A00ADF8060001A91D48FDF755
:103EF000B3FF012211461B48FEF725FB1E208DF85B
:103F0000000003208DF801008DF8020001208DF8DB
:103F100003006846FCF751FC01211248FEF7F8FA4D
:103F20007FBD10B501210F48FEF7BBFD80B1012117
:103F30000C48FEF7C7FD0C480078022803D1012089
:103F40000A49087004E008480078401C06490870D7
:103F500010BD000064000020650000200004004047
:103F60002C000020000800406A0000206B000020A8
:103F700010B586B0044601210420FDF7FFFB0121A6
:103F80004804FDF708FC26208DF8140003208DF866
:103F900015008DF8160001208DF8170005A8FCF714
:103FA0000CFC0220ADF8100003208DF81200102048
:103FB0008DF8130004A9F648FDF7BEF80221F44875
:103FC000FDF769F90420ADF8100003208DF8120008
:103FD00018208DF8130004A9ED48FDF7ADF808206E
:103FE000ADF8100004208DF8130004A9E848FDF78F
:103FF000A3F800940020ADF80400ADF80600ADF879
:104000000800ADF80C000C20ADF80A006946E14844
:10401000FEF79FFD012240F22551DE48FEF731FEFA
:104020000121DC48FEF721FE06B010BD10B50446A4
:104030000221D748FDF72DF900BFD648008800F0CF
:1040400080000028F9D0C4F30800D249091D088077
:104050000520FFF758FE0221CD48FDF71CF910BDE1
:1040600070B505460E460221C948FDF712F9002435
:1040700004E0285DFFF7DAFF601C84B2B442F8DB8D
:1040800000BFC448008800F080000028F9D0052057
:10409000FFF739FE0221BE48FDF7FDF8204670BD4E
:1040A000BD480088704770B50346FFF7F9FF044626
:1040B000A14200DAA1B2002217E0B84805880088C2
:1040C000401CB64E3080B648405D9854354628882E
:1040D000C51700EBD5556D12A0EB45253580AE48D0
:1040E0000088401EAC4D2880521C8A42E5DB084601
:1040F00070BD10B54FF40071A94803F0D2F900204B
:10410000A5490880A7490880A449088010BD70B55A
:1041100005460024FFF7C4FF0446002C15DD0BE024
:104120000520FFF7F0FDFFF7BBFFA04203DDFFF71F
:10413000B7FF044600E000E0F2E700BF2146284652
:10414000FFF7B1FF0446FFF7D4FF204670BD2DE90D
:10415000F04105460E46174647F48070FFF766FFAC
:10416000012404E0285DFFF761FF601C84B2B442C3
:10417000F8DB00BF8748008800F080000028F9D0F5
:104180000520FFF7C0FD2046BDE8F08110B540F2E4
:1041900025518048FEF75AFE48B340F225517D482C
:1041A000FEF77EFE7B48001D0088C1B27D48028874
:1041B0000088401C7B4B1880794881541946088838
:1041C000C11700EBD1514912A0EB41211A461180D1
:1041D00071490888C11700EBD1514912A0EB412168
:1041E0006D4A118010460088401C1146088010BDA1
:1041F00010B586B0044601210820FDF7BFFA012161
:104200008804FDF7C8FA01210846FDF7B7FA272010
:104210008DF8140003208DF815008DF8160001208C
:104220008DF8170005A8FCF7C8FA4FF48060ADF8C8
:10423000100003208DF8120018208DF8130004A937
:104240005948FCF779FF4FF40060ADF810000420E6
:104250008DF8130004A95448FCF76EFF0094002069
:10426000ADF80400ADF80600ADF80800ADF80C009C
:104270000C20ADF80A0069464C48FEF76AFC0122A2
:1042800040F225514948FEF7FCFC01214748FEF762
:10429000ECFC06B010BD10B540F225514348FEF7C6
:1042A000D5FD48B340F225514048FEF7F9FD3F489F
:1042B000001D0088C1B23E4802880088401C3C4B6B
:1042C00018803C48815419460888C11700EB516199
:1042D000C911A0EBC1111A46118037490888C117CE
:1042E00000EB5161C911A0EBC111334A1180104696
:1042F0000088401C1146088010BD00BF2B4909886A
:1043000001F080010029F9D0C0F30801274A121DED
:104310001180704730B504460D46002304E0E05C90
:10432000FFF7EBFF581C83B2AB42F8DB00BF1F481E
:10433000008800F080000028F9D0184630BD1E48E3
:104340000088704770B50346FFF7F9FF0446A142A5
:1043500000DDA1B2002217E0184805880088401C43
:10436000164E30801348405D985435462888C5174E
:1043700000EB5565ED11A0EBC51535800E480088A2
:10438000401E0D4D2880521C8A42E5DB084670BD58
:104390000008014000440040700000206C00002034
:1043A0005A0700206E000020000C01400048004029
:1043B000740000205A0900207600002072000020BE
:1043C00010B580212F4803F06CF800202E4908809A
:1043D0002E4908802E49088010BD70B5054600247E
:1043E000FFF7ADFF0446002C15DD0BE00520FFF7BD
:1043F0008AFCFFF7A4FFA04203DDFFF7A0FF0446FD
:1044000000E000E0F2E700BF21462846FFF79AFFF0
:104410000446FFF7D5FF204670BD70B504460D4633
:10442000164646F48070FFF768FF002304E0E05C66
:10443000FFF763FF581C83B2AB42F8DB00BF15489F
:10444000008800F080000028F9D0184670BD70B5D3
:1044500004460D4600BF80210E48FEF7E1FC00280F
:10446000F9D0C4F308000B49091D0880204670BD2F
:104470000146084A121D1288D0B270477047704733
:10448000704700005A0900207600002074000020C8
:10449000720000200048004010B586B0044601219B
:1044A00044F20400FDF76AF925208DF8140003207A
:1044B0008DF815008DF8160001208DF8170005A85D
:1044C000FCF77BF94FF48070ADF8100003208DF8F5
:1044D000120010208DF8130004A97948FCF72CFE77
:1044E0004FF480717648FCF7D6FE4FF40070ADF8BB
:1044F000100003208DF8120018208DF8130004A975
:104500006F48FCF719FE4FF48060ADF810000420EE
:104510008DF8130004A96A48FCF70EFE00944FF4CE
:104520008050ADF804000020ADF80600ADF808009A
:10453000ADF80C000C20ADF80A0069466148FEF7A2
:1045400008FB012240F225515E48FEF79AFB01214B
:104550005C48FEF78AFB06B010BD10B540F225514D
:104560005848FEF773FC48B340F225515548FEF712
:1045700097FC5448001D0188534802880088401C5D
:10458000514B1880514820F8121019460888C1175D
:1045900000EBD1514912A0EB41211A4611804C4940
:1045A0000888C11700EBD1514912A0EB4121484ABC
:1045B000118010460088401C1146088010BD00BFC5
:1045C0004049098801F080010029F9D0C0F30801B1
:1045D0003C4A121D1180704770B505460E460024F6
:1045E00005E035F81400FFF7EAFF601C84B2B4421E
:1045F000F7DB00BF3348008800F080000028F9D0C6
:104600000520FFF780FB204670BD314800887047C9
:1046100070B50346FFF7F9FF0446A14200DDA1B2E1
:10462000002219E02B4805880088401C294E308064
:10463000264830F8150023F8120035462888C5179B
:1046400000EBD5556D12A0EB45253580204800883C
:10465000401E1F4D2880521C8A42E3DB084670BD75
:1046600010B54FF48061194802F01BFF0020184973
:104670000880154908801749088010BD2DE9F041D0
:104680000546884616461F463246294612A0FFF7C1
:10469000F5FE002406E037F8141012A0FFF7EEFE36
:1046A000601CC4B2B442F6DB10A0FFF7E7FEBDE821
:1046B000F08100B50021FFF7A8FF014608B200BD58
:1046C00000080140003801407A000020DA0900208B
:1046D0007C000020780000202D2D25732F25642DCF
:1046E0002D3A0000253033782C0000000A0000002D
:1046F00070B502460B46002002F080047CB31D4CCE
:10470000247804F080045CB31A4C2478B02C0EDBBF
:10471000A12A0CDBA2F1A104164D2D78B03DC5EB0A
:10472000051606EB451504EB4501482013E0114C36
:104730002478A12C0DDBA12A0BDBA2F1A1040D4DE5
:104740002D78A13DC5EB051606EB451504EB45019B
:1047500000E0DA2148200024064D2C7009E004E036
:10476000FFE7044C2270002003E00024014D2C7070
:10477000242070BD7E0000204FF0C04108807047AB
:10478000FA49088070474FF0C04108807047F749E8
:10479000088070474FF0C0421080F44A1180704783
:1047A00070B504460D461646F148006801281ED132
:1047B0002A20FFF7E1FF2012FFF7E2FFE0B2FFF748
:1047C000DFFF3012FFF7DCFFF0B2FFF7D9FF2B203D
:1047D000FFF7D2FF2812FFF7D3FFE8B2FFF7D0FFB1
:1047E0001812FFF7CDFFD8B2FFF7CAFF22E0E0486A
:1047F000006802281ED12112FFF7CCFFE1B203208E
:10480000FFF7C8FF31120420FFF7C4FFF1B2052003
:10481000FFF7C0FF29120620FFF7BCFFE9B207200F
:10482000FFF7B8FF19120820FFF7B4FFD9B209202B
:10483000FFF7B0FF70BD70B504460D461646B4F5DF
:104840009E7F01DAF02D00DD70BD2B462246294601
:104850002046FFF7A5FFC6480068012803D12C2099
:10486000FFF78AFF06E0C2480068022802D1222032
:10487000FFF782FF3046FFF783FF00BFE4E72DE933
:10488000F84F06460F4690469946DDF828A04FF0AF
:10489000000B0020009007F10C0083B206F10F001E
:1048A00082B239463046FFF77BFFB14800680128E5
:1048B00003D12C20FFF760FF06E0AD480068022816
:1048C00002D12220FFF758FF002421E05846411C66
:1048D0001FFA81FBA749085C0090002515E00098AD
:1048E000A84000F08000802803D14046FFF748FF31
:1048F0000AE0BAF1000F03D04846FFF741FF03E09A
:104900009D480088FFF73CFF6D1C082DE7DB641C09
:104910001A2CDBDB1020BDE8F88F2DE9F84F044698
:104920000D4690469946DDF82CB000200090B4F575
:104930009D7F01DCEF2D02DD0020BDE8F88F05F141
:104940000C0083B2E01D82B229462046FFF728FF03
:104950002C20FFF711FFA8F1200000EB800101EBF4
:10496000C0001FFA80FA002621E05046411C1FFAC1
:1049700081FA8249085C0090002715E00098B84051
:1049800000F08000802803D14846FFF7F9FE0AE0D6
:10499000BBF1000F03D00A98FFF7F2FE03E0764860
:1049A0000088FFF7EDFE7F1C082FE7DB761C0D2E3D
:1049B000DBDB0820C1E72DE9FF4F81468A4600274F
:1049C00000260024B9F59D7F02DCBAF1EF0F03DD6C
:1049D000002004B0BDE8F08FDDF808B0BBF1240F73
:1049E0007BD10AF1170083B209F10B0082B2514664
:1049F0004846FFF7D5FE5E480068012803D12C2009
:104A0000FFF7BAFE06E05A480068022802D12220C9
:104A1000FFF7B2FE039800EBC00085004FF00008DE
:104A2000002754E02846691C8DB255490C5C2402CD
:104A30002846691C8DB25249085C0443240228466A
:104A4000691C8DB24E49085C0443002616E004FA46
:104A500006F000F40000B0F5000F03D10D98FFF749
:104A60008FFE09E00F9818B10E98FFF789FE03E05A
:104A700041480088FFF784FE701C86B20C2EE6DBEE
:104A800008F101001FFA80F8002618E006F10C007A
:104A900004FA00F000F40000B0F5000F03D10D9807
:104AA000FFF76EFE09E00F9818B10E98FFF768FE49
:104AB00003E031480088FFF763FE701C86B20C2EBD
:104AC000E4DB08F101001FFA80F8781C87B20C2F94
:104AD000A8DB4FF00C0B88E1FFE7BBF1480F6CD16E
:104AE0000AF1170083B209F1170082B25146484615
:104AF000FFF756FE1E480068012803D12C20FFF75F
:104B00003BFE06E01A480068022802D12220FFF787
:104B100033FE0398203800EBC0004FF6FF7101EA26
:104B2000C0054FF00008002742E02846691C8DB2FE
:104B300014490C5C24022846691C8DB21149085C9A
:104B4000044324022846691C8DB20E49085C0443C4
:104B5000002625E004FA06F000F40000B0F5000F8E
:104B600012D10D98FFF70CFE18E000000000026063
:104B700080000020FB9B010884000020289701088A
:104B800028850108159C01080F9818B10E98FFF7A9
:104B9000F7FD03E0F7480088FFF7F2FD701C86B2CE
:104BA000182ED7DB08F101001FFA80F8781C87B2B5
:104BB000182FBADB4FF0180B17E1BBF1200F54D1BF
:104BC0000AF10F0083B209F10F0082B25146484644
:104BD000FFF7E6FDE8480068012803D12C20FFF725
:104BE000CBFD06E0E4480068022802D12220FFF74E
:104BF000C3FD039820384FF6FF7101EA40154FF0CE
:104C0000000800272CE02846691C8DB2DB490C5CAB
:104C100024022846691C8DB2D849085C044300264A
:104C200016E004FA06F000F40040B0F5004F03D19E
:104C30000D98FFF7A5FD09E00F9818B10E98FFF742
:104C40009FFD03E0CB480088FFF79AFD701C86B2F9
:104C5000102EE6DB08F101001FFA80F8781C87B2FD
:104C6000102FD0DB4FF0100BBFE0BBF1400F54D141
:104C70000AF11F0083B209F10F0082B25146484683
:104C8000FFF78EFDBC480068012803D12C20FFF7F8
:104C900073FD06E0B8480068022802D12220FFF721
:104CA0006BFD039820384FF6FF7101EA80154FF035
:104CB000000800272CE02846691C8DB2B0490C5C26
:104CC00024022846691C8DB2AD49085C04430026C5
:104CD00016E004FA06F000F40040B0F5004F03D1EE
:104CE0000D98FFF74DFD09E00F9818B10E98FFF7EA
:104CF00047FD03E09F480088FFF742FD701C86B225
:104D0000102EE6DB08F101001FFA80F8781C87B24C
:104D1000202FD0DB4FF0100B67E0BBF1800F62D18A
:104D20000AF11F0083B209F11F0082B251464846C2
:104D3000FFF736FD90480068012803D12C20FFF7CB
:104D40001BFD06E08C480068022802D12220FFF7F4
:104D500013FD039820384FF6FF7101EAC0154FF09C
:104D6000000800273AE02846691C8DB285490C5C92
:104D700024022846691C8DB28249085C044324023F
:104D80002846691C8DB27F49085C044324022846EA
:104D9000691C8DB27B49085C0443002616E004FAC6
:104DA00006F000F00040B0F1004F03D10D98FFF77E
:104DB000E7FC09E00F9818B10E98FFF7E1FC03E05B
:104DC0006C480088FFF7DCFC701C86B2202EE6DB06
:104DD00008F101001FFA80F8781C87B2202FC2DB8F
:104DE0004FF0200B01E04FF0000B5846F1E52DE9A4
:104DF000FF4F99B081468A46002700260024B9F566
:104E00009D7F02DCBAF1EF0F03DD00201DB0BDE88D
:104E1000F08F69461B98FFF76BFC8346BBF1240FAC
:104E200073D10AF1170083B209F10B0082B2514627
:104E30004846FFF7B5FC50480068012803D12C20F4
:104E4000FFF79AFC06E04C480068022802D12220B5
:104E5000FFF792FC1B9800EBC00085004FF00008A4
:104E600000274CE02846691C8DB247490C5C24029F
:104E70002846691C8DB24449085C04432402284634
:104E8000691C8DB24049085C0443002616E004FA10
:104E900006F000F40000B0F5000F03D11C98FFF7F6
:104EA0006FFC09E0279818B12698FFF769FC03E02A
:104EB00030480088FFF764FC701C86B20C2EE6DBDD
:104EC000002618E006F10C0004FA00F000F40000DF
:104ED000B0F5000F03D11C98FFF752FC09E02798AA
:104EE00018B12698FFF74CFC03E022480088FFF732
:104EF00047FC701C86B20C2EE4DB781C87B20C2FAA
:104F0000B0DB4FF00C0B74E1FFE7BBF1480F63D14E
:104F10000AF1170083B209F1170082B251464846E0
:104F2000FFF73EFC14480068012803D12C20FFF74E
:104F300023FC06E010480068022802D12220FFF777
:104F40001BFC0025A846002741E02846691C8DB2BD
:104F50000E490C5C24022846691C8DB20B49085C82
:104F6000044324022846691C8DB20849085C0443A6
:104F7000002624E08400002080000020D2CF010819
:104F8000CDB601088DCE010828850108159C0108C1
:104F900004FA06F000F40000B0F5000F03D11C98ED
:104FA000FFF7EEFB09E0279818B12698FFF7E8FB1A
:104FB00003E0FE480088FFF7E3FB701C86B2182E62
:104FC000E6DB08F101001FFA80F8781C87B2182F81
:104FD000BBDB4FF0180B0CE1BBF1200F4FD10AF1F6
:104FE0000F0083B209F10F0082B251464846FFF725
:104FF000D7FBEF480068012803D12C20FFF7BCFB4A
:1050000006E0EB480068022802D12220FFF7B4FB3B
:1050100020254FF0000800272CE02846691C8DB29F
:10502000E4490C5C24022846691C8DB2E149085C05
:105030000443002616E004FA06F000F40040B0F540
:10504000004F03D11C98FFF79BFB09E0279818B18C
:105050002698FFF795FB03E0D4480088FFF790FB04
:10506000701C86B2102EE6DB08F101001FFA80F8F2
:10507000781C87B2102FD0DB4FF0100BB9E0BBF1DA
:10508000400F54D10AF11F0083B209F10F0082B220
:1050900051464846FFF784FBC5480068012803D104
:1050A0002C20FFF769FB06E0C1480068022802D106
:1050B0002220FFF761FB1B9820384FF6FF7101EAB1
:1050C00080154FF0000800272CE02846691C8DB29F
:1050D000B9490C5C24022846691C8DB2B649085CAB
:1050E0000443002616E004FA06F000F40040B0F590
:1050F000004F03D11C98FFF743FB09E0279818B134
:105100002698FFF73DFB03E0A8480088FFF738FB2F
:10511000701C86B2102EE6DB08F101001FFA80F841
:10512000781C87B2202FD0DB4FF0100B61E0BBF171
:10513000800F5CD10AF11F0083B209F11F0082B217
:1051400051464846FFF72CFB99480068012803D1D7
:105150002C20FFF711FB06E095480068022802D1D9
:105160002220FFF709FB0025A84600273AE0284641
:10517000691C8DB291490C5C24022846691C8DB2D1
:105180008E49085C044324022846691C8DB28B4971
:10519000085C044324022846691C8DB28749085CD8
:1051A0000443002616E004FA06F000F00040B0F1D7
:1051B000004F03D11C98FFF7E3FA09E0279818B1D4
:1051C0002698FFF7DDFA03E078480088FFF7D8FA61
:1051D000701C86B2202EE6DB08F101001FFA80F871
:1051E000781C87B2202FC2DB4FF0200B01E04FF07C
:1051F000000B58460AE62DE9FE4F06460C4690463F
:105200001D46DDE90DABDDF830900027B4F59D7F3C
:1052100001DCEF2E02DD0020BDE8FE8F0CE08DE802
:10522000000E2B78424631462046FFF7C4FB20444F
:1052300084B26D1C781C87B2287808B1162FEEDB7B
:105240002046E9E72DE9FC4706460C4615469846F8
:10525000DDE90A9A0027B4F59D7F01DCEF2E02DD1F
:105260000020BDE8FC870CE0CDE9009A2A7843468F
:1052700031462046FFF7BBFD204484B26D1C781CEC
:1052800087B2287808B1162FEEDB2046E9E72DE932
:10529000FC4706460C4615469846DDE90A9A002763
:1052A000B4F59D7F01DCEF2E02DD0020BDE8FC8718
:1052B0000CE0CDE9009A2A78434631462046FFF7B4
:1052C0002CFB204484B26D1C781C87B2287808B16E
:1052D000162FEEDB2046E9E72DE9FC5F07460C467A
:1052E00090469946DDF830B04FF0000A14B900201E
:1052F000BDE8FC9F204602F0DFF8064606EBD671BB
:105300004910C1F10D0101EB410189040D0CB5F506
:105310009D7F01DCEF2F01DD0020E9E70EE0CDE904
:10532000009B2278434639462846FFF760FD284413
:1053300085B2641C0AF101001FFA80FA207810B1CE
:10534000BAF1160FEBDB2846D2E72DE9FC470646FB
:105350000C4691461F46DDF828A00025A846EF2EF2
:1053600001DDBDE8FC870CE0CDE9007A22784B46F0
:1053700031464046FFF73BFD40441FFA80F8641C6D
:105380006D1C207808B1162DEED30BE04B46202281
:1053900031464046CDE9007AFFF729FD40441FFA27
:1053A00080F86D1C162DF1D300BFDAE784000020D1
:1053B00080000020D2CF0108CDB601088DCE0108B3
:1053C0002DE9FC5F05460E4614469846DDE90DAB17
:1053D000DDF830900027B6F59D7F01DCEF2D02DD72
:1053E0000020BDE8FC9F23E020780D2802D105268F
:1053F000641C1DE020780A2805D105F1180085B24B
:105400000027641C14E0CDE9009A2278434629461F
:105410003046FFF7ECFC304486B2641C781C87B23F
:10542000162F04DB052605F1180085B2002700BF02
:1054300020780028D8D1ABF800503046D1E72DE9CC
:10544000F04F04460E4615461F46002C0ADB002E80
:1054500008DBB5F5A07F05DAEF2F03DCAC4201DCF9
:10546000BE4203DD4FF0FF30BDE8F08FB81B401C9B
:10547000291B491C00FB01FBBBB2AAB2B1B2A0B20E
:10548000FFF78EF9FE480068012803D12C20FFF7B2
:1054900073F906E0FA480068022802D12220FFF7DB
:1054A0006BF94FF0000825E0281B401CB8FBF0F01A
:1054B00000EB0609281B401CB8FBF0F100FB118033
:1054C00000EB040A4E4505D04F4503D0A24501D05C
:1054D000AA4503D1EB490998088009E00B9818B157
:1054E000E8490A98088003E0E7480088E549088011
:1054F00008F10108D845D7D30020B5E73EB50546E9
:105500000324062095FBF0F501204FF6FF71009172
:105510000C2304F11C02CDE9011000212046FFF705
:105520008EFF062D57D2DFE805F0493B2D1F1103F2
:1055300001204FF61F0100910C2304F11C02CDE95C
:1055400001100146D01EFFF77AFF00BF01204FF681
:105550001F0100910C2304F11702CDE90110032172
:10556000D01EFFF76CFF00BF01204FF61F01009116
:105570000C2304F11202CDE901100521D01EFFF722
:105580005EFF00BF01204FF61F0100910C2304F1C4
:105590000D02CDE901100721D01EFFF750FF00BF1B
:1055A00001204FF61F0100910C2304F10802CDE900
:1055B00001100921601DFFF742FF00BF01204FF6D7
:1055C0001F0100910C23E21CCDE901100B212046A4
:1055D000FFF735FF00BF00BF3EBD2DE9FC47054684
:1055E0000E4614469846DDE90A9A0027B5F59D7FD8
:1055F00001DCEF2E01DDBDE8FC8710E0CDE9009A6B
:105600002278434631462846FFF7F1FB304486B204
:10561000641C781C87B2B5F59D7F00DD03E020781F
:1056200008B1162FEADB00BF00BFE4E72DE9FC5FFD
:1056300080460D4691469A46DDE90FB700240026C4
:105640001BE04C450DD354450BD80D98CDE9000710
:105650002A78414630460C9BFFF7C9FB304486B29E
:1056600009E0CDE900B72A78414630460E9BFFF7A6
:10567000BEFB304486B26D1C641C287808B1162C21
:10568000DFD30AE0CDE900B72022414630460E9B29
:10569000FFF7ADFB304486B2641C162CF2D33046C3
:1056A000BDE8FC9F794A1180794A1080704710B597
:1056B000302477480088173083B274480088401C33
:1056C00082B27348018871480088FFF769F82C207E
:1056D000FFF752F803E04FF478406A490880201E33
:1056E000A4F10104F7D110BD10B53024684800883A
:1056F000173083B265480088401C82B26448018834
:1057000062480088FFF74CF82C20FFF735F803E0DB
:105710005D4800885B490880201EA4F10104F7D190
:1057200010BD30B5014601F01F04C1F34513CA0A8C
:10573000E50205EB43151544A8B230BD0CB50020B9
:1057400000900190D320FFF717F84E4800788DF8AD
:1057500000004C4800788DF801004A4800788DF828
:105760000200484800788DF803009DF80200932855
:1057700007D19DF80300412803D10120404908606A
:1057800002E002203E49086001203D4908600CBD4E
:1057900008B50022002000900920FEF7EDFF3948EF
:1057A00000788DF80000374800788DF80000354803
:1057B00000788DF80100334800788DF802003148F8
:1057C00000788DF803009DF80000D42801D04FF038
:1057D000FF32104608BD10B50446012C7ED154B1ED
:1057E000FEF7CAFF1E20FEF78EFA1120FEF7C4FF57
:1057F0001E20FEF788FACF20FEF7BEFF0020FEF73E
:10580000BFFFC120FEF7BCFF3020FEF7B9FFED203F
:10581000FEF7B2FF6420FEF7B3FF0320FEF7B0FFF0
:105820001220FEF7ADFF8120FEF7AAFFE820FEF769
:10583000A3FF8520FEF7A4FF1020FEF7A1FF7A202A
:10584000FEF79EFFCB20FEF797FF3920FEF798FF6B
:105850002C20FEF795FF0020FEF792FF3420FEF784
:105860008FFF0220FEF78CFFF720FEF785FF202038
:10587000FEF786FFEA20FEF77FFF00200AE0000027
:1058800080000020000002608400002086000020CC
:1058900088000020FEF774FF0020FEF771FFC02093
:1058A000FEF76AFF2120FEF76BFF3A20FEF764FF48
:1058B0005520FEF765FFC120FEF75EFF1120FEF7C1
:1058C0005FFFC520FEF758FF4F20FEF759FF3C2031
:1058D000FEF756FFC720FEF74FFF00E093E0A7203A
:1058E000FEF74EFF3620FEF747FFA820FEF748FFE1
:1058F000B120FEF741FF0020FEF742FF1B20FEF71C
:105900003FFFB620FEF738FF0A20FEF739FFA2203E
:10591000FEF736FF2120FEF72FFFF220FEF72CFFC7
:105920000020FEF72DFF2620FEF726FF0120FEF7C0
:1059300027FFE020FEF720FF0F20FEF721FF2320A6
:10594000FEF71EFF1F20FEF71BFF0B20FEF718FFC0
:105950000E20FEF715FF0820FEF712FF4B20FEF782
:105960000FFFA820FEF70CFF3B20FEF709FF0A20DF
:10597000FEF706FF1420FEF703FF0620FEF700FFE8
:105980001020FEF7FDFE0920FEF7FAFE0020FEF7CC
:10599000F7FEE120FEF7F0FE0020FEF7F1FE1C20EE
:1059A000FEF7EEFE2020FEF7EBFE0420FEF7E8FEF9
:1059B0001020FEF7E5FE0820FEF7E2FE3420FEF799
:1059C000DFFE4720FEF7DCFE4420FEF7D9FE05206F
:1059D000FEF7D6FE0B20FEF7D3FE0920FEF7D0FE21
:1059E0002F20FEF7CDFE3620FEF7CAFE0F20FEF771
:1059F000C7FE2020FEF7C0FE2920FEF7BDFE2C20AA
:105A0000FEF7BAFE9DE2022C7ED195214620FEF7DC
:105A1000C1FE51214720FEF7BDFE00214820FEF7C0
:105A2000B9FE36214920FEF7B5FE11214A20FEF7C6
:105A3000B1FE66214B20FEF7ADFE14214C20FEF78F
:105A4000A9FE77214D20FEF7A5FE13214E20FEF77B
:105A5000A1FE4C214F20FEF79DFE46215020FEF76F
:105A600099FE46215120FEF795FE00210220FEF707
:105A700091FE00210320FEF78DFE01210420FEF798
:105A800089FE3F210520FEF785FE00210620FEF756
:105A900081FE00210720FEF77DFE00210820FEF791
:105AA00079FEEF210920FEF775FE06210120FEF7A1
:105AB00071FE78211620FEF76DFE00213820FEF7DA
:105AC00069FE95212320FEF765FE95212420FEF72F
:105AD00061FEFF212520FEF75DFE06212720FEF74F
